{"contracts/AccessLogger.sol":{"AccessLogger":{"abi":[{"anonymous":false,"inputs":[{"indexed":true,"internalType":"address","name":"accessor","type":"address"},{"indexed":false,"internalType":"string","name":"userEmail","type":"string"},{"indexed":false,"internalType":"string","name":"recordName","type":"string"},{"indexed":false,"internalType":"string","name":"action","type":"string"},{"indexed":false,"internalType":"uint256","name":"timestamp","type":"uint256"}],"name":"AccessLogged","type":"event"},{"inputs":[{"internalType":"string","name":"userEmail","type":"string"},{"internalType":"string","name":"recordName","type":"string"},{"internalType":"string","name":"action","type":"string"}],"name":"logAccess","outputs":[],"stateMutability":"nonpayable","type":"function"}],"evm":{"bytecode":{"linkReferences":{},"object":"6080604052348015600f57600080fd5b506102918061001f6000396000f3fe608060405234801561001057600080fd5b506004361061002b5760003560e01c8063c0cbd4ec14610030575b600080fd5b61004361003e366004610136565b610045565b005b336001600160a01b03167f352f7f8b12e46992a99a31e9dcc7b9b1e371caf8a61ad80ce9a101f68fad9790848484426040516100849493929190610210565b60405180910390a2505050565b634e487b7160e01b600052604160045260246000fd5b600082601f8301126100b857600080fd5b813567ffffffffffffffff8111156100d2576100d2610091565b604051601f8201601f19908116603f0116810167ffffffffffffffff8111828210171561010157610101610091565b60405281815283820160200185101561011957600080fd5b816020850160208301376000918101602001919091529392505050565b60008060006060848603121561014b57600080fd5b833567ffffffffffffffff81111561016257600080fd5b61016e868287016100a7565b935050602084013567ffffffffffffffff81111561018b57600080fd5b610197868287016100a7565b925050604084013567ffffffffffffffff8111156101b457600080fd5b6101c0868287016100a7565b9150509250925092565b6000815180845260005b818110156101f0576020818501810151868301820152016101d4565b506000602082860101526020601f19601f83011685010191505092915050565b60808152600061022360808301876101ca565b828103602084015261023581876101ca565b9050828103604084015261024981866101ca565b9150508260608301529594505050505056fea2646970667358221220fda0cf3723d41a14435c64f0460e0786bbdac2866519629051748cff0106b63064736f6c634300081c0033","opcodes":"PUSH1 0x80 PUSH1 0x40 MSTORE CALLVALUE DUP1 ISZERO PUSH1 0xF JUMPI PUSH1 0x0 DUP1 REVERT JUMPDEST POP PUSH2 0x291 DUP1 PUSH2 0x1F PUSH1 0x0 CODECOPY PUSH1 0x0 RETURN INVALID PUSH1 0x80 PUSH1 0x40 MSTORE CALLVALUE DUP1 ISZERO PUSH2 0x10 JUMPI PUSH1 0x0 DUP1 REVERT JUMPDEST POP PUSH1 0x4 CALLDATASIZE LT PUSH2 0x2B JUMPI PUSH1 0x0 CALLDATALOAD PUSH1 0xE0 SHR DUP1 PUSH4 0xC0CBD4EC EQ PUSH2 0x30 JUMPI JUMPDEST PUSH1 0x0 DUP1 REVERT JUMPDEST PUSH2 0x43 PUSH2 0x3E CALLDATASIZE PUSH1 0x4 PUSH2 0x136 JUMP JUMPDEST PUSH2 0x45 JUMP JUMPDEST STOP JUMPDEST CALLER PUSH1 0x1 PUSH1 0x1 PUSH1 0xA0 SHL SUB AND PUSH32 0x352F7F8B12E46992A99A31E9DCC7B9B1E371CAF8A61AD80CE9A101F68FAD9790 DUP5 DUP5 DUP5 TIMESTAMP PUSH1 0x40 MLOAD PUSH2 0x84 SWAP5 SWAP4 SWAP3 SWAP2 SWAP1 PUSH2 0x210 JUMP JUMPDEST PUSH1 0x40 MLOAD DUP1 SWAP2 SUB SWAP1 LOG2 POP POP POP JUMP JUMPDEST PUSH4 0x4E487B71 PUSH1 0xE0 SHL PUSH1 0x0 MSTORE PUSH1 0x41 PUSH1 0x4 MSTORE PUSH1 0x24 PUSH1 0x0 REVERT JUMPDEST PUSH1 0x0 DUP3 PUSH1 0x1F DUP4 ADD SLT PUSH2 0xB8 JUMPI PUSH1 0x0 DUP1 REVERT JUMPDEST DUP2 CALLDATALOAD PUSH8 0xFFFFFFFFFFFFFFFF DUP2 GT ISZERO PUSH2 0xD2 JUMPI PUSH2 0xD2 PUSH2 0x91 JUMP JUMPDEST PUSH1 0x40 MLOAD PUSH1 0x1F DUP3 ADD PUSH1 0x1F NOT SWAP1 DUP2 AND PUSH1 0x3F ADD AND DUP2 ADD PUSH8 0xFFFFFFFFFFFFFFFF DUP2 GT DUP3 DUP3 LT OR ISZERO PUSH2 0x101 JUMPI PUSH2 0x101 PUSH2 0x91 JUMP JUMPDEST PUSH1 0x40 MSTORE DUP2 DUP2 MSTORE DUP4 DUP3 ADD PUSH1 0x20 ADD DUP6 LT ISZERO PUSH2 0x119 JUMPI PUSH1 0x0 DUP1 REVERT JUMPDEST DUP2 PUSH1 0x20 DUP6 ADD PUSH1 0x20 DUP4 ADD CALLDATACOPY PUSH1 0x0 SWAP2 DUP2 ADD PUSH1 0x20 ADD SWAP2 SWAP1 SWAP2 MSTORE SWAP4 SWAP3 POP POP POP JUMP JUMPDEST PUSH1 0x0 DUP1 PUSH1 0x0 PUSH1 0x60 DUP5 DUP7 SUB SLT ISZERO PUSH2 0x14B JUMPI PUSH1 0x0 DUP1 REVERT JUMPDEST DUP4 CALLDATALOAD PUSH8 0xFFFFFFFFFFFFFFFF DUP2 GT ISZERO PUSH2 0x162 JUMPI PUSH1 0x0 DUP1 REVERT JUMPDEST PUSH2 0x16E DUP7 DUP3 DUP8 ADD PUSH2 0xA7 JUMP JUMPDEST SWAP4 POP POP PUSH1 0x20 DUP5 ADD CALLDATALOAD PUSH8 0xFFFFFFFFFFFFFFFF DUP2 GT ISZERO PUSH2 0x18B JUMPI PUSH1 0x0 DUP1 REVERT JUMPDEST PUSH2 0x197 DUP7 DUP3 DUP8 ADD PUSH2 0xA7 JUMP JUMPDEST SWAP3 POP POP PUSH1 0x40 DUP5 ADD CALLDATALOAD PUSH8 0xFFFFFFFFFFFFFFFF DUP2 GT ISZERO PUSH2 0x1B4 JUMPI PUSH1 0x0 DUP1 REVERT JUMPDEST PUSH2 0x1C0 DUP7 DUP3 DUP8 ADD PUSH2 0xA7 JUMP JUMPDEST SWAP2 POP POP SWAP3 POP SWAP3 POP SWAP3 JUMP JUMPDEST PUSH1 0x0 DUP2 MLOAD DUP1 DUP5 MSTORE PUSH1 0x0 JUMPDEST DUP2 DUP2 LT ISZERO PUSH2 0x1F0 JUMPI PUSH1 0x20 DUP2 DUP6 ADD DUP2 ADD MLOAD DUP7 DUP4 ADD DUP3 ADD MSTORE ADD PUSH2 0x1D4 JUMP JUMPDEST POP PUSH1 0x0 PUSH1 0x20 DUP3 DUP7 ADD ADD MSTORE PUSH1 0x20 PUSH1 0x1F NOT PUSH1 0x1F DUP4 ADD AND DUP6 ADD ADD SWAP2 POP POP SWAP3 SWAP2 POP POP JUMP JUMPDEST PUSH1 0x80 DUP2 MSTORE PUSH1 0x0 PUSH2 0x223 PUSH1 0x80 DUP4 ADD DUP8 PUSH2 0x1CA JUMP JUMPDEST DUP3 DUP2 SUB PUSH1 0x20 DUP5 ADD MSTORE PUSH2 0x235 DUP2 DUP8 PUSH2 0x1CA JUMP JUMPDEST SWAP1 POP DUP3 DUP2 SUB PUSH1 0x40 DUP5 ADD MSTORE PUSH2 0x249 DUP2 DUP7 PUSH2 0x1CA JUMP JUMPDEST SWAP2 POP POP DUP3 PUSH1 0x60 DUP4 ADD MSTORE SWAP6 SWAP5 POP POP POP POP POP JUMP INVALID LOG2 PUSH5 0x6970667358 0x22 SLT KECCAK256 REVERT LOG0 0xCF CALLDATACOPY 0x23 0xD4 BYTE EQ NUMBER TLOAD PUSH5 0xF0460E0786 0xBB 0xDA 0xC2 DUP7 PUSH6 0x19629051748C SELFDESTRUCT ADD MOD 0xB6 ADDRESS PUSH5 0x736F6C6343 STOP ADDMOD SHR STOP CALLER "},"methodIdentifiers":{"logAccess(string,string,string)":"c0cbd4ec"}}}}}