{
  "_format": "hh-sol-artifact-1",
  "contractName": "AccessLogger",
  "sourceName": "contracts/AccessLogger.sol",
  "abi": [
    {
      "anonymous": false,
      "inputs": [
        {
          "indexed": true,
          "internalType": "address",
          "name": "accessor",
          "type": "address"
        },
        {
          "indexed": false,
          "internalType": "string",
          "name": "userEmail",
          "type": "string"
        },
        {
          "indexed": false,
          "internalType": "string",
          "name": "recordName",
          "type": "string"
        },
        {
          "indexed": false,
          "internalType": "string",
          "name": "action",
          "type": "string"
        },
        {
          "indexed": false,
          "internalType": "uint256",
          "name": "timestamp",
          "type": "uint256"
        }
      ],
      "name": "AccessLogged",
      "type": "event"
    },
    {
      "inputs": [
        {
          "internalType": "string",
          "name": "userEmail",
          "type": "string"
        },
        {
          "internalType": "string",
          "name": "recordName",
          "type": "string"
        },
        {
          "internalType": "string",
          "name": "action",
          "type": "string"
        }
      ],
      "name": "logAccess",
      "outputs": [],
      "stateMutability": "nonpayable",
      "type": "function"
    }
  ],
  "bytecode": "0x6080604052348015600f57600080fd5b506102918061001f6000396000f3fe608060405234801561001057600080fd5b506004361061002b5760003560e01c8063c0cbd4ec14610030575b600080fd5b61004361003e366004610136565b610045565b005b336001600160a01b03167f352f7f8b12e46992a99a31e9dcc7b9b1e371caf8a61ad80ce9a101f68fad9790848484426040516100849493929190610210565b60405180910390a2505050565b634e487b7160e01b600052604160045260246000fd5b600082601f8301126100b857600080fd5b813567ffffffffffffffff8111156100d2576100d2610091565b604051601f8201601f19908116603f0116810167ffffffffffffffff8111828210171561010157610101610091565b60405281815283820160200185101561011957600080fd5b816020850160208301376000918101602001919091529392505050565b60008060006060848603121561014b57600080fd5b833567ffffffffffffffff81111561016257600080fd5b61016e868287016100a7565b935050602084013567ffffffffffffffff81111561018b57600080fd5b610197868287016100a7565b925050604084013567ffffffffffffffff8111156101b457600080fd5b6101c0868287016100a7565b9150509250925092565b6000815180845260005b818110156101f0576020818501810151868301820152016101d4565b506000602082860101526020601f19601f83011685010191505092915050565b60808152600061022360808301876101ca565b828103602084015261023581876101ca565b9050828103604084015261024981866101ca565b9150508260608301529594505050505056fea2646970667358221220fda0cf3723d41a14435c64f0460e0786bbdac2866519629051748cff0106b63064736f6c634300081c0033",
  "linkReferences": {},
  "deployedLinkReferences": {}
}